:100000000C94F8000C94F8060C94D1060C94AA06F3
:100010000C9483060C9420010C9420010C945C0633
:100020000C9420010C9420010C944F080C94C108EE
:100030000C9420010C9420010C9420010C942001BC
:100040000C9420010C9420010C9420010C942001AC
:100050000C9420010C9420010C9420010C941206A5
:100060000C9420010C9420010C9420010C9420018C
:100070000C9420010C9420010C9420010C9420017C
:100080000C9420010C9420010C9420010C9420016C
:100090000C941F070C9420010C9420010C94200157
:1000A0000C9420010C9420010C942001CE01D1016C
:1000B000C001C401CA01F201F201F201D501D90166
:1000C000DD01E301E701F201ED017C058105860513
:1000D00090059A05E405E405E405A405AE05B80518
:1000E000C205CF05E405D705000000002400270065
:1000F0002A002D00300000000000250028002B0001
:100100002E003100000000002300260029002C00F2
:100110002F00040404040403040502020202040381
:100120000202020206060606060604040202020491
:1001300004040802011040804010204080408008E4
:100140000204018040201002011080102040402055
:100150000000000200090F0000030401000C000071
:100160000000000000000000000000000000000887
:100170000B0002020201000904000001020200005B
:1001800005240010010524010101042402060524B0
:100190000600010705810310004009040100020A5E
:1001A000000000070502024000000705830240002E
:1001B000000403090412010002EF020140FB1F00CA
:1001C00023000101020301506F6C6F6C7520436FB7
:1001D00072706F726174696F6E00506F6C6F6C75C6
:1001E00020412D53746172203332553400001010B9
:1001F00011241FBECFEFDAE0DEBFCDBF11E0A0E0DB
:10020000B1E0E6E4F5E202C005900D92A639B1072F
:10021000D9F722E0A6E9B1E001C01D92A93DB207DD
:10022000E1F710E0C8EFD0E004C02197FE010E9482
:100230009612C73FD107C9F70E94CE0C0C94A112A9
:100240000C9400004091280250912902209126022E
:100250003091270242175307B4F49091E80095704B
:10026000E1F39091E80092FD19C08093F100809134
:1002700028029091290201968F739927892B19F4EE
:100280008EEF8093E80080912802909129020196D8
:10029000909329028093280281E0089580E00895D8
:1002A000CF92DF92EF92FF920F931F93CF93DF9342
:1002B0006C017A018B01C0E0D0E0CE15DF0589F03A
:1002C000D8016D918D01D601ED91FC910190F081E5
:1002D000E02DC6010995892B11F47E0102C02196FB
:1002E000ECCFC701DF91CF911F910F91FF90EF905D
:1002F000DF90CF900895CF93DF931F92CDB7DEB7F5
:100300006983DC01ED91FC910280F381E02D41E0F5
:1003100050E0BE016F5F7F4F09950F90DF91CF9145
:10032000089583E08093E9008091F200882319F01A
:100330008AE38093E8000895FC018485958597FD04
:100340000BC09FB7F89482E08093E9008091F2009F
:100350009FBF90E0019608959FB7F89482E0809344
:10036000E9008091F2009FBF90E0089590E0FC01C9
:100370003197EF30F105B0F5EA5AFF4F0C94961221
:10038000809180008F7703C0809180008F7D809363
:100390008000089580918000877FF9CF84B58F77A2
:1003A00002C084B58F7D84BD0895809190008F77C1
:1003B00007C0809190008F7D03C080919000877F5F
:1003C0008093900008958091C0008F7703C0809142
:1003D000C0008F7D8093C00008958091C200877F08
:1003E0008093C2000895089585ED8093BC008091AC
:1003F000BC0084FDFCCF10922E0208954091D601DE
:10040000262F30E0240F311D21323105DCF42091FC
:100410002E022430C9F4FC0180E090E0861758F4E5
:100420003091D6012191DC01AA54BE4FA30FB11D1A
:100430002C930196F3CF8091D601680F6093D6017B
:1004400080E0089581E0089582E00895E091370208
:10045000F0913802309729F01092300210922F025A
:1004600009940895CF93DF93AC01E0913902F091A4
:100470003A023097F1F09091320280913102981750
:10048000C0F090E0292F30E02617370754F4D90147
:10049000AA56BE4FEA01C20FD31F88818C939F5F7B
:1004A000F1CF1092320260933102CB01DF91CF91F4
:1004B0000994DF91CF9108950895E09132028091DF
:1004C0003102E81730F4F0E0EA56FE4F808190E008
:1004D00008958FEF9FEF089590913202809131023D
:1004E000981750F4E92FF0E0EA56FE4F208130E0F3
:1004F0009F5F9093320202C02FEF3FEFC901089532
:100500008091310290E020913202821B910908957E
:10051000CF93DF9300D0CDB7DEB7CB01642F4983F3
:100520005A830E94FE014981842F5A81952F0F9092
:100530000F90DF91CF910895CF93DF931F92CDB7A6
:10054000DEB7698361E0CE0101960E94FE0181E081
:1005500090E00F90DF91CF910895089580E090E0B2
:100560000895CF93DF93049768F0F894CBE3D2E03B
:1005700081EC92E00E946C02899382E0CF33D8072D
:10058000B9F77894DF91CF910895CF93DF9300D09E
:1005900000D0CDB7DEB7F89420E83CEA4BEA52E44D
:1005A00060913F027091400280914102909142021D
:1005B0000E94A31069837A838B839C8344E050E07C
:1005C000BE016F5F7F4F81EC92E00E94880244E0A1
:1005D00050E06BE372E081EC92E00E948802789434
:1005E0000F900F900F900F90DF91CF9108958F9201
:1005F0009F92AF92BF92CF92DF92EF92FF920F93B2
:100600001F93CF93DF936C015B017A0180910B0103
:10061000882309F456C080917002882309F451C0E0
:1006200080912B0280FF05C08091E0008260809362
:10063000E000E70110E00AEF83E0882E9AE3992EAC
:100640002097B1F10E94A90C811105C00150C9F198
:100650000E94650CF5CF282F30E0C217D3070CF4A9
:100660008C2F4FB7F8948092E9009091E80095FFA5
:100670001DC0282F30E0C21BD30BF501982F9150DD
:1006800020F081918093F100FACFA20EB31E1123C6
:1006900019F09092E80009C08091E80085FD06C03D
:1006A0009092E80011E0209709F010E04FBFC8CF0A
:1006B0001111C8CF5D9884E680932A021E141F048E
:1006C00044F081E090E0F6019383828380E090E043
:1006D00001C0C701DF91CF911F910F91FF90EF9063
:1006E000DF90CF90BF90AF909F908F9008950E9421
:1006F000A90C90E00895CF93DF931F92CDB7DEB79A
:10070000FC018485958597FD05C02FEF3FEF358768
:1007100024870BC0CE0101960E947F0C019719F42B
:10072000898190E002C08FEF9FEF0F90DF91CF9112
:1007300008950F931F93CF93DF931F92CDB7DEB72A
:100740008C01FC018485958597FF0EC0CE01019632
:100750000E947F0C019719F4298130E002C02FEF2D
:100760003FEFF80135872487F801848595850F9040
:10077000DF91CF911F910F910895CF92DF92EF9269
:10078000FF920F931F93CF93DF931F92CDB7DEB7E6
:10079000182F062FE42E862F880F8E5F99830E94D4
:1007A000220183E00E942201F12EC12E9981D92ECF
:1007B0008C2D8F19801798F4F601E7FE02C0849102
:1007C00001C080810E942201182F80E00E94220136
:1007D0008123FFEFCF1ADF0A8111EACF01C081E048
:1007E0000F90DF91CF911F910F91FF90EF90DF90CD
:1007F000CF900895DF92EF92FF920F931F93CF93C4
:10080000DF93D82E8A017B01E40EF51EEB01CE1595
:10081000DF0571F0D7FE03C0FE01849101C088811D
:100820000E94220121968111F2CF8FEF9FEF01C02C
:10083000C801DF91CF911F910F91FF90EF90DF9052
:1008400008950F931F93CF93DF931F92CDB7DEB719
:1008500082E0898342E450E06FE671E080E80E9424
:10086000FA030E94BA0CDC0112960D911C911397A9
:100870000115110569F0D801ED91FC910280F38119
:10088000E02DBE016F5F7F4FC801099597FF07C03C
:1008900089810F90DF91CF911F910F910895F801F9
:1008A00000851185E5CF615030F02091F100FC0109
:1008B00020830196F8CF289884E680936F020895EC
:1008C000CF93DF93282F30E0F901E05BFE4F849156
:1008D000F901EF5CFE4FD491F901EE5EFE4FC49139
:1008E000CC2391F081110E94B601EC2FF0E0EE0FC5
:1008F000FF1FEC5FFE4FA591B491EC91ED2381E0D9
:1009000090E021F480E002C080E090E0DF91CF91A0
:10091000089581E00E946004019731F480E00E9414
:100920006004019791F405C080E00E946004892B67
:1009300061F48091430290914402A0914502B091EC
:1009400046020196A11DB11D0BC0809143029091FA
:100950004402A0914502B09146020197A109B10954
:100960008093430290934402A0934502B0934602C1
:10097000089580E00E946004019731F481E00E94B4
:100980006004892B91F405C081E00E946004019706
:1009900061F48091430290914402A0914502B0918C
:1009A00046020196A11DB11D0BC08091430290919A
:1009B0004402A0914502B09146020197A109B109F4
:1009C0008093430290934402A0934502B093460261
:1009D00008951F93CF93DF93282F30E0F901E05B58
:1009E000FE4F8491F901EF5CFE4FD491F901EE5E68
:1009F000FE4FC491CC23C9F0162F81110E94B6017D
:100A0000EC2FF0E0EE0FFF1FEA50FF4FA591B491DD
:100A10008FB7F894111105C09C91ED2FE095E92353
:100A200002C0EC91ED2BEC938FBFDF91CF911F9122
:100A30000895CF93DF9390E0FC01EF5CFE4F24918B
:100A4000FC01EE5EFE4F8491882361F190E0880FF7
:100A5000991FFC01E851FF4FC591D491FC01EA5068
:100A6000FF4FA591B491611109C09FB7F894888197
:100A7000209582238883EC912E230BC0623061F491
:100A80009FB7F8943881822F809583238883EC91D7
:100A90002E2B2C939FBF06C08FB7F894E8812E2B86
:100AA00028838FBFDF91CF9108951F93CF93DF935A
:100AB000182FEB0161E00E941905209711F460E006
:100AC00004C0CF3FD10539F461E0812FDF91CF9190
:100AD0001F910C94E904E12FF0E0E05BFE4FE491FC
:100AE0004E2F50E0FA013197EF30F10508F06CC05D
:100AF000EB59FF4F0C94961284B5806884BDC7BD36
:100B000068C084B5806284BDC8BD63C08091800028
:100B1000806880938000D0938900C093880059C07A
:100B200080918000806280938000D0938B00C0937E
:100B30008A004FC080918000886080938000D093AD
:100B40008D00C0938C0045C0809190008068809398
:100B50009000D0939900C09398003BC08091900082
:100B6000806280939000D0939B00C0939A0031C024
:100B700080919000886080939000D0939D00C093F6
:100B80009C0027C08091C00080688093C000809145
:100B9000C0008F7B8093C000C093CF001AC08091AB
:100BA000C00080628093C000C093D00012C08091CA
:100BB000C20088608093C2008091C2008B7F8093C6
:100BC000C200C093D20005C0C038D1050CF07CCF64
:100BD00076CFDF91CF911F9108953FB7F894809120
:100BE000220290912302A0912402B091250226B501
:100BF000A89B05C02F3F19F00196A11DB11D3FBF55
:100C0000BA2FA92F982F8827820F911DA11DB11DE2
:100C1000BC01CD0142E0660F771F881F991F4A95DE
:100C2000D1F708951F920F920FB60F9211242F93B0
:100C30003F938F939F93AF93BF9380911E029091A8
:100C40001F02A0912002B091210230911D0223E0E9
:100C5000230F2D3720F40196A11DB11D05C026E8F4
:100C6000230F0296A11DB11D20931D0280931E0229
:100C700090931F02A0932002B09321028091220240
:100C800090912302A0912402B09125020196A11D0A
:100C9000B11D8093220290932302A0932402B0936B
:100CA0002502BF91AF919F918F913F912F910F900E
:100CB0000FBE0F901F9018951F920F920FB60F92B4
:100CC00011242F933F934F935F936F937F938F9351
:100CD0009F93AF93BF93EF93FF93E0911401F09133
:100CE00015010995FF91EF91BF91AF919F918F9160
:100CF0007F916F915F914F913F912F910F900FBE18
:100D00000F901F9018951F920F920FB60F921124FB
:100D10002F933F934F935F936F937F938F939F9303
:100D2000AF93BF93EF93FF93E0911201F091130102
:100D30000995FF91EF91BF91AF919F918F917F9115
:100D40006F915F914F913F912F910F900FBE0F9038
:100D50001F9018951F920F920FB60F9211242F9388
:100D60003F934F935F936F937F938F939F93AF9333
:100D7000BF93EF93FF93E0911001F091110109955A
:100D8000FF91EF91BF91AF919F918F917F916F9163
:100D90005F914F913F912F910F900FBE0F901F9039
:100DA00018951F920F920FB60F9211242F933F9315
:100DB0004F935F936F937F938F939F93AF93BF9363
:100DC000EF93FF93E0910E01F0910F010995FF91D0
:100DD000EF91BF91AF919F918F917F916F915F91B3
:100DE0004F913F912F910F900FBE0F901F9018952C
:100DF0001F920F920FB60F9211242F933F934F9390
:100E00005F936F937F938F939F93AF93BF93EF9372
:100E1000FF93E0910C01F0910D010995FF91EF9185
:100E2000BF91AF919F918F917F916F915F914F9102
:100E30003F912F910F900FBE0F901F9018951F920A
:100E40000F920FB60F9211242F933F934F935F93FE
:100E50006F937F938F939F93AF93BF93EF93FF9382
:100E60008091B900887F803609F49CC068F588328B
:100E700009F45BC090F4803109F454C038F488233D
:100E800009F4F6C0883009F44DC0F6C0883109F481
:100E90004CC0803209F45DC0EFC0803409F468C0F2
:100EA00048F4803309F455C0883309F0E5C08093D5
:100EB000F901D8C0803509F44FC0883509F45DC008
:100EC000883409F0D9C0D6C0883909F4C7C0A8F45D
:100ED000883709F467C038F4883609F463C080376E
:100EE00009F460C0C9C0883809F4B8C0803909F471
:100EF0005FC0803809F0C0C05BC0803B09F486C089
:100F000038F4803A09F466C0883A09F47FC0B4C066
:100F1000803C09F4A7C0883C09F4A4C0883B09F4CC
:100F20008AC0AAC080911C0210C090911B028091BF
:100F30001A02981770F5E0911B0281E08E0F8093E2
:100F40001B02F0E0E650FE4F80818093BB0085ECF1
:100F500086C08093F9018EC0E0911B0281E08E0F64
:100F600080931B028091BB00F0E0E650FE4F80832F
:100F700090911B0280911A026EC0E0911B0281E0E9
:100F80008E0F80931B028091BB00F0E0E650FE4F75
:100F9000808380912D0281116DC081E080932C02AD
:100FA00084EA61C083E080932E021092F801CFCFD3
:100FB0008091F801803208F051C0E091F80181E0A1
:100FC0008E0F8093F8018091BB00F0E0E852FE4F55
:100FD0008083BDCF85EC8093BC0010922E0280915F
:100FE000F801803230F4E091F801F0E0E852FE4F71
:100FF00010826091F80170E0E0913302F0913402C8
:1010000088ED91E009951092F80136C084E0809354
:101010002E021092D7011092D601E0913502F09184
:10102000360209958091D601811105C081E0809337
:10103000D6011092B601E091D70181E08E0F809326
:10104000D701F0E0EA54FE4F80818093BB0090917D
:10105000D7018091D601981708F479CF85E880935D
:10106000BC000AC085EC8093BC0010922E0204C024
:101070001092F9010E94F401FF91EF91BF91AF919D
:101080009F918F917F916F915F914F913F912F91A0
:101090000F900FBE0F901F9018950E949C121F92E8
:1010A0000F920FB60F9211248F939F938091E100BE
:1010B0009091E100937F9093E10083FF0FC0109225
:1010C000E90091E09093EB001092EC0092E3909392
:1010D000ED001092700298E09093F00082FF20C023
:1010E00093E09093E9009091F200992319F09AE32C
:1010F0009093E80090912A02992339F090912A0266
:10110000915090932A02992389F190916F0299232B
:1011100039F090916F02915090936F02992341F1B1
:1011200084FF10C08091E2008E7E81608093E20097
:101130008091E1008F7E8093E10080912B028E7E72
:10114000806111C080FF16C08091E2008E7E8061B8
:101150008093E2008091E1008E7E8093E100809197
:101160002B028E7E816080932B0204C05D9ACDCFCE
:10117000289AD6CF9F918F910F900FBE0F901F90FE
:1011800018951F920F920FB60F921124CF92DF92F3
:10119000EF92FF920F931F932F933F934F935F9381
:1011A0006F937F938F939F93AF93BF93EF93FF932F
:1011B000CF93DF93CDB7DEB76C97DEBFCDBF109274
:1011C000E9008091E80083FFEDC168E0CE0145961B
:1011D0000E94530482EF8093E8008D8987FF05C049
:1011E0009091E80090FFFCCF03C09EEF9093E80041
:1011F000982F907609F0C6C09E892F89188D91117D
:101200000CC0803829F4809148028093F10002C01C
:101210001092F1001092F10048C1422F50E0512B82
:10122000913051F4811141C14130510509F03DC166
:10123000809148028D7F0BC0933061F4811135C1DC
:101240004130510509F031C180914802826080939C
:1012500048022BC1953041F48091E80080FFFCCF1B
:1012600020682093E30021C1963009F05FC0EB8C29
:10127000FC8C1092E9001092290210922802123080
:1012800091F510922702109226020E94210499E003
:10129000BE016F5F7F4FDB01E92F1D92EA95E9F7F1
:1012A00099831A8391E09E8390EA98879AEF9987B1
:1012B0002091280230912902275F3F4F3C832B83E6
:1012C0008D831092E9001092290210922802F09268
:1012D0002702E092260249E050E080E00E94FA03F3
:1012E0000E942104E2C0F0922702E09226020E94AE
:1012F000BA0CDC011296ED90FC901397E114F10406
:1013000009F4C0C0D701ED91FC910480F581E02D76
:10131000BE016B5E7F4FC7010995009719F00CF075
:10132000C4C0C7C0F701E084F184E8CF973009F466
:10133000C0C0983021F481E08093F100B6C09930AC
:1013400009F0B3C0837009F0B4C0EEE1F1E081E0D0
:1013500021E036E39081992361F08093E9002093A6
:10136000EB0091919093EC003093ED008F5F87300C
:1013700089F78EE78093EA001092EA008F898093C4
:10138000700293C08B8D9C8D1092E90010922902FF
:10139000109228029093270280932602898D811152
:1013A00056C08E899D89913A59F4813209F081C0E5
:1013B00047E050E064E071E080E00E94FA0375C00D
:1013C000913209F076C0833289F4888D90E0982FAD
:1013D00088272F89822BA0E0B0E0809300019093B2
:1013E0000101A0930201B09303015FC0803269F450
:1013F0008091E80082FFFCCF67E084E091E00E94EA
:1014000053048BEF8093E80006C0823209F04DC090
:101410008F8980930B0180914702882319F0EEEFAA
:10142000FAE002C0E0E0F8E080910401909105014B
:10143000A0910601B0910701803B9440A105B10540
:1014400009F07BC080910B0180FF93C076C00E94A1
:10145000BA0CDC0112960D911C9113970115110520
:1014600041F1D801ED91FC910190F081E02DBE0198
:101470006B5E7F4FC8010995811117C0F801008587
:101480001185ECCF113009F44EC0133091F48F89DF
:10149000882309F445C0823081F440E862E18AED96
:1014A00091E00E94BD03882321F08EEF8093E80035
:1014B00079C081E28093EB0075C0813029F440E867
:1014C00062E187EC91E0EDCF833099F70E94BA0C8E
:1014D000DC011296ED90FC9013978E010F5F1F4F69
:1014E0006801E114F10479F0D701ED91FC910680D7
:1014F000F781E02DB801C7010995080F111DF7010B
:10150000E084F184EECFD8011C92F6010190002016
:10151000E9F73197BF016C197D0940E0C601C1CFE1
:1015200061EB71E002C065EB71E06115710509F2D4
:10153000FB01449150E080E840CF0FB6F894A895A5
:1015400080916000886180936000109260000FBEFF
:10155000A895EE3F2AE0F20739F08091FE0A9091BB
:10156000FF0A91838083A1CF1092FF0A1092FE0A96
:101570009CCFEE3F8AE0F80731F080819181909313
:10158000FF0A8093FE0A87E797E7918380839BE0B9
:1015900088E10FB6F894A895809360000FBE9093F1
:1015A000600083CF6C960FB6F894DEBF0FBECDBF40
:1015B000DF91CF91FF91EF91BF91AF919F918F916B
:1015C0007F916F915F914F913F912F911F910F915B
:1015D000FF90EF90DF90CF900F900FBE0F901F9075
:1015E0001895E0917102F09172020190F081E02D66
:1015F000682F81E792E00994BC01009791F0FC010B
:1016000001900020E9F73197AF01481B590BE09199
:101610007102F09172020280F381E02D81E792E085
:10162000099480E090E008958F929F92AF92BF92CC
:101630000F931F93CF93DF93CDB7DEB7A1970FB66C
:10164000F894DEBF0FBECDBF19A2423008F44AE0C5
:101650008E010F5D1F4F842E912CA12CB12CA50162
:1016600094010E947412E62FB901CA0101501109B8
:10167000EA3014F4E05D01C0E95CD801EC93232B5F
:10168000242B252B61F7C8010E94FC0AA1960FB6F6
:10169000F894DEBF0FBECDBFDF91CF911F910F91A8
:1016A000BF90AF909F908F900895CF93DF930E944B
:1016B000FC0AEC0186E891E00E94FC0A8C0F9D1F59
:1016C000DF91CF910895CF92DF92EF92FF92CF9367
:1016D000DF936C01990FEE08FF08F7FE17C08DE24B
:1016E0000E94F10AEC0166277727CB016C197D096E
:1016F0008E099F094AE00E94140B8C0F9D1FDF91F9
:10170000CF91FF90EF90DF90CF9008954AE0C7010E
:10171000B601DF91CF91FF90EF90DF90CF900C94C6
:10172000140B4F925F926F927F928F929F92AF9223
:10173000BF92CF92DF92EF92FF926B017C01B42EA9
:101740009B01AC010E946F12882319F089E891E097
:1017500027C026013701E89477F82FEF3FEF4FE7D6
:101760005FE7C301B2010E946F1281110DC02FEF1C
:101770003FEF4FE75FE7C301B2010E949E101816CA
:101780001CF48DE891E00CC02FEF3FEF4FE75FE4D2
:10179000C701B6010E94FD11181684F481E991E099
:1017A000FF90EF90DF90CF90BF90AF909F908F9081
:1017B0007F906F905F904F900C94FC0A2FEF3FEF5B
:1017C0004FE75FECC701B6010E949E1087FDE6CF90
:1017D00020E030E0A901C701B6010E949E1087FFFA
:1017E00009C08DE20E94F10A4C01F7FAF094F7F873
:1017F000F09402C0812C912CA12C60E070E080E07C
:101800009FE3AB1441F020E030E040E251E40E945D
:10181000A310A394F6CF9B01AC01C701B6010E94AF
:1018200032102B013C010E941C116B017C010E94B3
:101830004B119B01AC01C301B2010E9431102B017D
:101840003C014AE0C701B6010E94140B7C01E80C80
:10185000F91CBB2029F08EE20E94F10AE80EF91E65
:10186000DB2CDD2021F120E030E040E251E4C30137
:10187000B2010E9402122B013C010E941C114B017B
:10188000A12CB12C4AE0C501B4010E94140BE80E52
:10189000F91EC501B4010E944B119B01AC01C301AB
:1018A000B2010E9431102B013C01DA94DACFC7015A
:1018B000FF90EF90DF90CF90BF90AF909F908F9070
:1018C0007F906F905F904F900895CF92DF92EF924C
:1018D000FF920E94ED056B017C010E94ED05DC0189
:1018E000CB018C199D09AE09BF09883E9340A10523
:1018F000B10598F3FF90EF90DF90CF900895FC0131
:1019000080917002811103C08FEF9FEF08959FB700
:10191000F89482E08093E9002091F20030E0121602
:10192000130614F421E030E02115310559F0289810
:1019300084E680936F028091F10080838091F200B1
:10194000882319F09FBFC90108958BE68093E800B2
:10195000F9CF2FB7F89483E08093E9009091E800E5
:10196000892F807295FF04C09091F20080E4891B5A
:101970002FBF08958091D10281110DC082E0809324
:10198000CD0284E08093CE021092D0021092CF025A
:1019900081E08093D1028DEC92E00895789484B533
:1019A000826084BD84B5816084BD85B5826085BD5B
:1019B00085B5816085BD80916E00816080936E00E9
:1019C00010928100809181008260809381008091DB
:1019D000810081608093810080918000816080938C
:1019E00080008091910082608093910080919100AD
:1019F000816080939100809190008160809390003D
:101A00008091C10084608093C1008091C100826098
:101A10008093C1008091C10081608093C10080915A
:101A2000C30081608093C3008091C0008260809376
:101A3000C0008091C20081608093C20080917A00D2
:101A4000846080937A0080917A00826080937A002B
:101A500080917A00816080937A0080917A0080681A
:101A600080937A00109270021092480210922B021A
:101A70008091D70081608093D70080EA8093D8005E
:101A800089B5806189BD89B5826089BD09B400FED0
:101A9000FDCF0E94650C8091D8008F7C806180937F
:101AA000D8008091E000807F8093E0008091E10089
:101AB0008E7E8093E1008DE08093E200559A209A1B
:101AC000EEEFFFE7859194918B3F9C4D19F481E0F7
:101AD000809347028CEC8093BA0086E292E0909368
:101AE00036028093350282E392E090933402809331
:101AF0003302109232021092310210923002109290
:101B00002F0210922E0281E080932D0210922C025F
:101B100061E082E00E94E90461E083E00E94E90460
:101B20008091B9008E7F8093B9008091B9008D7F3C
:101B30008093B90088E48093B80085E48093BC006A
:101B400085EC92E0909338028093370281EB92E02B
:101B500090933A02809339028FEF9FEF90937E0229
:101B600080937D02CBE9DFE0CE010197F1F761E0E0
:101B700086E00E941905CE010197F1F761E084E04B
:101B80000E9419052197F1F761E085E00E9419058F
:101B900060E08AE00E94190560E088E00E94190573
:101BA00089EB94E09093110180931001809169007A
:101BB0008F7C806180936900EA9A89E894E0909331
:101BC000130180931201809169008F738064809368
:101BD0006900EB9A0BE91FE0C0E0D0E033243394B6
:101BE000F8948091430290914402A0914502B091F3
:101BF000460280936B0290936C02A0936D02B093A7
:101C00006E0278940E94ED056B017C01609367027F
:101C1000709368028093690290936A0280916302D4
:101C200090916402B601681B790B70931C0160935C
:101C30001B01072E000C880B990B0E944D1120E010
:101C400034E244E759E40E94A3104B015C01609325
:101C50001701709318018093190190931A01C09293
:101C60006302D0926402E0926502F0926602609193
:101C70006B0270916C0280916D0290916E020E94D5
:101C80004D119B01AC010E9432102BED3FE049E465
:101C900050E40E94021220E030E048E954E40E943F
:101CA000A3106B017C0160933F027093400280930C
:101CB000410290934202A50194010E94A3106093F7
:101CC0005F02709360028093610290936202809041
:101CD0003B0290903C02A0903D02B0903E0223E374
:101CE00033E34EED52ECC501B4010E949E10811108
:101CF0002AC010923B0210923C0210923D021092B8
:101D00003E028CE491E00E94550B8AE00E94600440
:101D1000892B71F460E084E00E94E90461E085E0D1
:101D20000E94E90468EC70E086E00E945505EDCF62
:101D30001092430210924402109245021092460201
:101D400086E591E02DC023E333E34EE553ECC50176
:101D5000B4010E949E1081110DC010921601C09214
:101D60003B02D0923C02E0923D02F0923E0285E6B8
:101D700091E016C026E636EA46EA53ECC501B40106
:101D80000E949E1081110EC030921601C0923B023B
:101D9000D0923C02E0923D02F0923E0285E791E053
:101DA0000E94550B20E83CEA4BEA52E460913B026A
:101DB00070913C0280913D0290913E020E9402127D
:101DC00020913F02309140024091410250914202E5
:101DD0000E9431106B017C0160935B0270935C0286
:101DE00080935D0290935E0240901701509018011D
:101DF0006090190170901A01209157023091580299
:101E00004091590250915A020E943110A30192014F
:101E10000E94A3104B015C01609353027093540223
:101E2000809355029093560210924F0210925002E6
:101E30001092510210925202C0925702D092580250
:101E4000E0925902F0925A0220E030E048E452E475
:101E5000C701B6010E9402126B017C01A501940129
:101E6000C501B4010E9432109B01AC01C701B6014B
:101E70000E94321020E030E0A9010E94321020E0E0
:101E800030E04FE753E40E94021220E030E040E8E7
:101E90005EE30E9402126B017C0120E030E04FE71C
:101EA00053EC0E949E1087FF05C080E090E0AFE7F2
:101EB000B3EC17C020E030E04FE753E4C701B601B0
:101EC0000E94FD1118164CF0C0924B02D0924C02A9
:101ED000E0924D02F0924E020CC080E090E0AFE73D
:101EE000B3E480934B0290934C02A0934D02B093C5
:101EF0004E0260914B0270914C0280914D02909184
:101F00004E020E9415116B017C01D0924A02C092D0
:101F10004902209116012223C9F077FF0DC060E02D
:101F200084E00E94E90461E085E00E94E9046627FC
:101F300077276C197D090CC061E084E00E94E904F8
:101F400060E085E00E94E904B60102C060E070E054
:101F500086E00E94550545E0C301B2010E94910B45
:101F600084E891E00E94FC0A8091490290914A0223
:101F70000E94630B84E891E00E94FC0A80E090E0FC
:101F80000E94630B84E891E00E94FC0A60913F028A
:101F900070914002809141029091420245E00E947E
:101FA000910B84E891E00E94FC0A60915B027091C1
:101FB0005C0280915D0290915E0243E00E94910B71
:101FC00084E891E00E94FC0A6091530270915402EF
:101FD000809155029091560243E00E94910B84E853
:101FE00091E00E94FC0A60914F0270915002809132
:101FF00051029091520243E00E94910B8091160190
:1020000090E00E94630B86E891E00E94FC0AC80100
:102010000197F1F7209709F4E3CD0E940000E0CD8D
:10202000E1E7F2E01382128288EE93E0A0E0B0E0F4
:1020300084839583A683B7832CE231E031832083A8
:102040002FEF3FEF35872487E1ECF2E01382128215
:1020500084839583A683B7838EE391E09183808305
:1020600008955058BB27AA270E9449100C94C31109
:102070000E94B51138F00E94BC1120F039F49F3F46
:1020800019F426F40C94B2110EF4E095E7FB0C94CD
:10209000AC11E92F0E94D41158F3BA1762077307E5
:1020A0008407950720F079F4A6F50C94F6110EF448
:1020B000E0950B2EBA2FA02D0B01B90190010C0158
:1020C000CA01A0011124FF27591B99F0593F50F470
:1020D000503E68F11A16F040A22F232F342F4427C8
:1020E000585FF3CF469537952795A795F0405395C0
:1020F000C9F77EF41F16BA0B620B730B840BBAF090
:102100009150A1F0FF0FBB1F661F771F881FC2F7FA
:102110000EC0BA0F621F731F841F48F4879577950E
:102120006795B795F7959E3F08F0B0CF9395880FC8
:1021300008F09927EE0F9795879508950E948811CA
:1021400008F481E008950E94B7100C94C3110E9416
:10215000BC1158F00E94B51140F029F45F3F29F0FE
:102160000C94AC1151110C94F7110C94B2110E9403
:10217000D41168F39923B1F3552391F3951B550BB3
:10218000BB27AA2762177307840738F09F5F5F4F4A
:10219000220F331F441FAA1FA9F335D00E2E3AF089
:1021A000E0E832D091505040E695001CCAF72BD0A1
:1021B000FE2F29D0660F771F881FBB1F26173707F2
:1021C0004807AB07B0E809F0BB0B802DBF01FF2724
:1021D00093585F4F3AF09E3F510578F00C94AC1144
:1021E0000C94F7115F3FE4F3983ED4F3869577950E
:1021F0006795B795F7959F5FC9F7880F911D9695DD
:10220000879597F90895E1E0660F771F881FBB1F38
:10221000621773078407BA0720F0621B730B840BE5
:10222000BA0BEE1F88F7E09508950E941C11689480
:10223000B1110C94F71108950E94DC1188F09F579A
:1022400098F0B92F9927B751B0F0E1F0660F771FDA
:10225000881F991F1AF0BA95C9F714C0B13091F0D0
:102260000E94F611B1E008950C94F611672F782FB3
:102270008827B85F39F0B93FCCF386957795679595
:10228000B395D9F73EF490958095709561957F4F01
:102290008F4F9F4F0895E89409C097FB3EF49095A7
:1022A0008095709561957F4F8F4F9F4F9923A9F02F
:1022B000F92F96E9BB279395F695879577956795BE
:1022C000B795F111F8CFFAF4BB0F11F460FF1BC002
:1022D0006F5F7F4F8F4F9F4F16C0882311F096E995
:1022E00011C0772321F09EE8872F762F05C0662343
:1022F00071F096E8862F70E060E02AF09A95660FFC
:10230000771F881FDAF7880F9695879597F90895B4
:10231000990F0008550FAA0BE0E8FEEF16161706F6
:10232000E807F907C0F012161306E407F50798F05E
:10233000621B730B840B950B39F40A2661F0232B77
:10234000242B252B21F408950A2609F4A140A695F3
:102350008FEF811D811D089597F99F6780E870E0D8
:1023600060E008959FEF80EC089500240A9416160B
:10237000170618060906089500240A941216130673
:10238000140605060895092E0394000C11F4882301
:1023900052F0BB0F40F4BF2B11F460FF04C06F5F1D
:1023A0007F4F8F4F9F4F089557FD9058440F551FF3
:1023B00059F05F3F71F04795880F97FB991F61F0C7
:1023C0009F3F79F087950895121613061406551F3E
:1023D000F2CF4695F1DF08C0161617061806991FAA
:1023E000F1CF86957105610508940895E894BB279F
:1023F00066277727CB0197F908950E94881108F482
:102400008FEF08950E9415120C94C3110E94B5110C
:1024100038F00E94BC1120F0952311F00C94AC11FF
:102420000C94B21111240C94F7110E94D41170F382
:10243000959FC1F3950F50E0551F629FF001729F69
:10244000BB27F00DB11D639FAA27F00DB11DAA1F78
:10245000649F6627B00DA11D661F829F2227B00DC5
:10246000A11D621F739FB00DA11D621F839FA00D50
:10247000611D221F749F3327A00D611D231F849FA0
:10248000600D211D822F762F6A2F11249F575040F7
:102490009AF0F1F088234AF0EE0FFF1FBB1F661F72
:1024A000771F881F91505040A9F79E3F510580F03B
:1024B0000C94AC110C94F7115F3FE4F3983ED4F305
:1024C000869577956795B795F795E7959F5FC1F7DF
:1024D000FE2B880F911D9695879597F908950E9478
:1024E0008811880B990B0895A1E21A2EAA1BBB1B19
:1024F000FD010DC0AA1FBB1FEE1FFF1FA217B307D0
:10250000E407F50720F0A21BB30BE40BF50B661FE5
:10251000771F881F991F1A9469F7609570958095A9
:1025200090959B01AC01BD01CF010895EE0FFF1FF7
:102530000590F491E02D099481E090E0F8940C94DA
:06254000A112F894FFCF88
:10254600FFFFFFFF00E1000000000000F301F301C0
:10255600F301F301F301010AD7233CE80300C1802C
:102566008100000080ACAB42000000007B01F70256
:10257600770391019C017B039903000000009C02F4
:102586008802AE025C0280026C025D02484F4D4931
:102596004E472E2E2E00486F6D696E6720436F6D75
:1025A6006D616E640044495341424C4520434F4D92
:1025B6004D414E4400454E41424C4520434F4D4D02
:1025C600414E440009000D0A006E616E00696E6698
:0625D600006F76660000B4
:00000001FF
